:020000040000FA
:10000000401A0020FD04000005050000070500005F
:10001000090500000B0500000D05000000000000B0
:100020000000000000000000000000000F050000BC
:10003000110500000000000013050000B1100000D1
:100040001705000017050000170500001705000040
:100050001705000017050000170500001705000030
:100060001705000017050000170500001705000020
:100070001705000017050000170500001705000010
:100080001705000017050000170500001705000000
:1000900017050000170500001705000017050000F0
:1000A00017050000170500001705000017050000E0
:1000B00017050000170500001705000017050000D0
:1000C00017050000170500001705000017050000C0
:1000D00017050000170500001705000017050000B0
:1000E00017050000170500001705000017050000A0
:1000F000170500007113000017050000F51300003C
:10010000170500001705000017050000170500007F
:10011000170500001705000017050000170500006F
:10012000170500001705000017050000170500005F
:10013000170500001705000017050000170500004F
:10014000170500001705000017050000170500003F
:10015000010F00001705000017050000170500003B
:10016000170500001705000017050000170500001F
:10017000170500001705000017050000170500000F
:1001800017050000170500001705000017050000FF
:1001900017050000170500001705000017050000EF
:1001A00017050000850F0000170500001705000067
:1001B00017050000170500001705000017050000CF
:1001C00017050000170500001705000017050000BF
:1001D00017050000170500001705000017050000AF
:1001E000170500001705000017050000170500009F
:10040000FFFFFFFFFFFFFFFFFFFFFFFFFEFFFFFFFD
:1004100000F002F800F063F80AA090E8000C8244B3
:100420008344AAF10107DA4501D100F058F8AFF290
:10043000090EBAE80F0013F0010F18BFFB1A43F0C2
:1004400001031847F8150000181600000A444FF081
:10045000000C10F8013B13F0070408BF10F8014B23
:100460001D1108BF10F8015B641E05D010F8016B68
:10047000641E01F8016BF9D113F0080F1EBF10F8CC
:10048000014BAD1C0C1B09D16D1E58BF01F801CBEF
:10049000FAD505E014F8016B01F8016B6D1EF9D572
:1004A0009142D6D370470000002300240025002687
:1004B000103A28BF78C1FBD8520728BF30C148BFC7
:1004C0000B6070471FB500F0D3F904000020002135
:1004D00001F042FA401C60601FBD10B510BD00F075
:1004E000F7F91146FFF7EEFF00F0C8FF00F015FA2C
:1004F00003B4FFF7F2FF03BC00F058FA0948804745
:1005000009480047FEE7FEE7FEE7FEE7FEE7FEE7F5
:10051000FEE7FEE7FEE7FEE704480549054A064B0D
:1005200070470000951100001104000040060020F3
:10053000401A002040160020401600202DE9F0014E
:1005400000235FEA910C16D0BCF1004F3FD201248A
:10055000BCF1010F0FDB00BF50F8045B03FA85F319
:1005600003EB254550F8043B05FA83F5641C05EBC5
:100570002343A445F0DA11F0030C22D0BCF1004F64
:1005800035D2ACF10105002D15DD841E1CF0010FE4
:1005900002D134F9026F3344B4F9027000266D10B1
:1005A00008D000BF34F9048F3B44B4F902704644CC
:1005B0006D1EF7D13344BCF1010C5CBF30F91C0057
:1005C000034493FBF1F01080BDE8F001704750F850
:1005D000044B03FA84F303EB244450F8043B04FA7D
:1005E00083F404EB2343BCF1010CF0D1C3E730F9F1
:1005F000024BBCF1010C2344F9D1E2E710B493089B
:10060000C0EA004C0DD0B3F1004F27D20124012BDA
:1006100007DB00BF41F804CB641C41F804CBA342C4
:10062000F8DA12F0030204BF10BC7047B2F1004FB9
:100630001BD2002ADCBF10BC7047891E12F0010FCC
:1006400018BF21F8020F520804BF10BC7047488041
:1006500021F8040F521EFAD110BC704741F804CBA8
:100660005B1E41F804CBF9D1DBE721F8020B521EE7
:10067000FBD110BC70472DE9F04791460F468046EC
:100680000446002614F8015B2DB100F06FF80068F5
:10069000405DC007F6D12B2D02D02D2D18D0641E41
:1006A0004A463946204600F06DF827B13968A14224
:1006B00001D1C7F800804FF0020471050BD540420C
:1006C000002803DD00F05AF80460A007BDE8F087B9
:1006D00046F48066E4E70028F8DA00F04FF804609A
:1006E0006FF00040F2E72DE9F05F93460F46804639
:1006F0000446002600F042F8D0F80090824614F834
:10070000015B2DB100F032F80068405DC007F6D102
:100710002B2D02D02D2D1AD0641E0021CAF80010F6
:100720005A463946204600F02DF8014627B1386870
:10073000A04201D1C7F80080DAF80000022809D0F1
:10074000CAF80090700505D54842BDE8F09F46F410
:100750008066E2E70846F8E7014A00F063B8000067
:1007600020040020704770477047000010B500F06B
:100770007FF8001D10BD00BFE11100000048704768
:10078000E00500202DE9F05F824615468B460027E4
:100790000AF10104B9460078302801D09DB113E078
:1007A00014F8010B0127782803D0582801D045B14F
:1007B0000AE00DB1102D07D1002714F8010B102508
:1007C00002E0082500E00A250026B0460EE005FB01
:1007D000080005FB06F101271FFA80F801EB10461F
:1007E000B6F5803F00D3B94614F8010B294600F056
:1007F00043F80028EBDABBF1000F05D00FB1641EFF
:1008000000E05446CBF80040B9F1000F06D0FFF7E6
:10081000B5FF02210160C81EBDE8F09F48EA06400E
:10082000FAE700002DE9F04115460E46040002D11A
:100830002C6804B90BA4204600F03CF8044420784E
:1008400070B127463146384600F024F80444207839
:1008500010B1002004F8010B38462C60BDE8F0818F
:100860000027F9E70000000000487047E00500207D
:1008700000487047000600203A2800D2303820F0A7
:100880002002412A01D3A2F13700884201D34FF060
:10089000FF30704730B503461D781DB10A4603E0AE
:1008A000AC4201D1181A30BD12F8014B002CF7D11F
:1008B0005B1CF1E730B503461D783DB10A4612F8DE
:1008C000014B1CB1AC42FAD15B1CF5E7181A30BDE4
:1008D0007546FFF7C9FFAE4605006946534620F04E
:1008E0000700854618B020B5FFF716FEBDE820408A
:1008F0004FF000064FF000074FF000084FF0000BDC
:1009000021F00701AC46ACE8C009ACE8C009ACE88E
:10091000C009ACE8C0098D46704710B50446AFF376
:1009200000802046BDE81040FFF7E2BD4FF0013CDB
:1009300050F8042B51F8043B9A4221D1A2EB0C034E
:10094000934313EACC1317D150F8042B51F8043B0E
:100950009A4215D1A2EB0C03934313EACC130BD1AB
:1009600050F8042B51F8043B9A4209D1A2EB0C0336
:10097000934313EACC13DBD04FF00000704700BF65
:10098000D01A01BAB1FA81F101F0180122FA01F08E
:10099000CB40C1F12001DBB2C0B2C01A2CFA01F386
:1009A000D11A914311EAC311E6D1704701491820C9
:1009B000ABBEFEE726000200704700000A48C06B8D
:1009C00040F000600849C86314200849886012207C
:1009D000C860002008620E20486200208861C8615B
:1009E00004208862704700000080044000B003408B
:1009F00001460848425C02F01F00074B186000BF28
:100A00000548006800F080000028F9D0024800691D
:100A100080B27047F019000000B0034070B5044682
:100A20000D461646022D39D1207830B101280AD062
:100A300002280ED0032830D125E0022020706078F3
:100A400000F020F929E002202070607800F01AF907
:100A500023E004F10C023221101DFFF76FFDB4F901
:100A60000C00B4F90E10884207DA2078022804D16D
:100A70002070607800F0A6F804E003202070607811
:100A800000F000F909E003202070606806EB900098
:100A9000A060607800F0F6F800BF2FE0207830B159
:100AA000012818D002281CD0032826D11FE0D4E941
:100AB0000101884207D9207828B900202070607889
:100AC00000F0B0F806E0012020700020606060783F
:100AD00000F0D8F811E001202070607800F0D2F822
:100AE0000BE000202070607800F0CCF805E00020DA
:100AF0002070607800F0C6F800BF00BF70BD70B510
:100B000004460D461646022D2DD1207830B101281D
:100B10000AD002280ED0032824D11DE00220207024
:100B2000607800F0AFF81DE002202070607800F0DF
:100B3000A9F817E0D4E90101884207D220780228F9
:100B400004D12070607800F03DF804E003202070AC
:100B5000607800F097F805E003202070607800F0DE
:100B600091F800BF2DE0207830B1012816D002287E
:100B70001AD0032824D11DE0606838B1207828B944
:100B800000202070607800F04DF806E00120207011
:100B900000206060607800F075F811E0012020709E
:100BA000607800F06FF80BE000202070607800F0B3
:100BB00069F805E000202070607800F063F800BF5D
:100BC00000BF70BD002828DD062826DC411E490034
:100BD000124A52F821104968421E5200104B53F835
:100BE00022201143421E52000C4B53F82220516028
:100BF000411E4900491C1A4652F821108968421EBC
:100C00005200521C064B53F822201143421E520040
:100C1000521C024B53F8222091607047EC030020D5
:100C2000081A0000002828DD062826DC411E49009D
:100C3000124A52F821108968421E5200104B53F894
:100C400022201143421E52000C4B53F82220916087
:100C5000411E4900491C1A4652F821104968421E9B
:100C60005200521C064B53F822201143421E5200E0
:100C7000521C024B53F8222051607047EC030020B5
:100C8000081A0000002828DD062826DC411E49003D
:100C9000124A52F821108968421E5200104B53F834
:100CA00022201143421E52000C4B53F82220916027
:100CB000411E4900491C1A4652F821108968421EFB
:100CC0005200521C064B53F822201143421E520080
:100CD000521C024B53F8222091607047EC03002015
:100CE000081A0000017831B1012908D0022909D081
:100CF00003290ED10AE04168491E416009E0002144
:100D0000416006E04168491C416002E04168416081
:100D100000BF00BF7047000010B5044604EB44005C
:100D20001C4A12F8101000221B48FFF777FE04EB54
:100D30004400184A02EB4000417800221748FFF7B0
:100D40006DFE04EB4400134A02EB40008178002260
:100D50001348FFF763FE04EB44000E4A02EB400029
:100D6000C17864220F48FFF759FE04EB4400094A9A
:100D700002EB40000179C8220B48FFF74FFE04EB5D
:100D80004400044A02EB4000417900220748FFF783
:100D9000B6FE10BD8419000024030020B00200201C
:100DA0003C020020C801002054010020E000002087
:100DB0000C48806B40F400600A49886388150A4932
:100DC00048610A48006820F0200008498039C1F8CD
:100DD00080000846D0F8940040F02000C1F894004C
:100DE000704700000080044000B0044080F00F40D5
:100DF0000448006840F0200002498839C1F88800A2
:100E00007047000088F00F400448006840F0200060
:100E100002498439C1F884007047000084F00F4013
:100E20003248806B40F40070304988630846806B1C
:100E300040F4006088630846806B40F4805088630B
:100E40002B48806840F48070294988600846006912
:100E500040F4807008610846C06840F48070C86043
:100E60002448C06840F480702249C8600846006980
:100E700040F4807008610846806840F480708860A3
:100E80000846C06940F48070C8611B48406B40F45C
:100E90008070194948630846006B40F4807008630D
:100EA0001448006840F48070124908600846806960
:100EB00040F4807088610E48406840F480700C49AE
:100EC00048600E48406940F440500C4948610B4866
:100ED0009430006840F01E00C1F894000846D0F835
:100EE000D40040F0DD00C1F8D40070470080044019
:100EF00000B0044000C004400090044000F00F40E7
:100F000010B50948006840F0010107480160074832
:100F1000007820B106480088401C05490880054833
:100F200000F07CF810BD00000C710340E8030020C5
:100F3000EA0300200C00002010B504460D48C06BE9
:100F400040F400000B49C8630B48006820F0030020
:100F500009490860094800684008B0FBF4F00849F6
:100F6000086003210448C0F80811442000F078FA12
:100F700010BD000000800440007003401C040020ED
:100F8000007103400B48806900F0807028B1094867
:100F9000806940F08070074988610648C06900F0A8
:100FA000807028B10348C06940F080700149C86171
:100FB0007047000000B004401549896B41F480611E
:100FC000134A91631146096B41F080711163114915
:100FD000896C41F4C0610F4A91641146C96C41F4B7
:100FE000C061D1640C49496D41F004010A4A516560
:100FF00009498031096841F0C101C2F880104FF6FB
:10100000FF7191600821116000210180704700008C
:101010000080044000A0044000800B400249496861
:1010200009B201807047000000800B4010B51C48D9
:10103000806B40F400601A4988631A4880691A4935
:101040000843184988610846806940F010008861AB
:101050000846806920F0010088610846C06912498D
:1010600008431049C8610846C06940F01000C861D3
:101070000846C06920F00100C8610C4800680B49AF
:101080009439C1F894000948006808490860C020F4
:101090000449A0310860592000F0E2F910BD0000B9
:1010A0000080044000B004400201090094F00F40A9
:1010B00010B50220FFF79CFC01B22F4800683222D5
:1010C000B0FBF2F302FB13022C4820F812100320AD
:1010D000FFF78EFC01B2284800683222B0FBF2F321
:1010E00002FB1302264820F812100420FFF780FCB0
:1010F00001B2214800683222B0FBF2F302FB130276
:10110000204820F812100520FFF772FC01B21A489F
:1011100000683222B0FBF2F302FB13021A4820F8F7
:1011200012100620FFF764FC01B213480068322257
:10113000B0FBF2F302FB1302144820F812100F4820
:101140001038FFF7CFFD0E481038FFF7CBFD0D48E4
:101150001038FFF7C7FD0C481038FFF7C3FD0B48E8
:101160001038FFF7BFFD0A48FFF7BCFD02480068D2
:10117000401C0149086010BDA0030020340300207A
:10118000C00200204C020020D80100206401002091
:10119000E00000204CF220505349C8814DF6281041
:1011A000C8814FF4E97008805048514948640846A6
:1011B000806B40F4007088634E48807800F008002F
:1011C00028B14C48807840F008004A4988704FF0B8
:1011D0008970474948640846406840F48030486058
:1011E0004548006840F44020434908604348806C0B
:1011F00043490840414988640846C06C404908405A
:101200003E49C86424203F49487080203E49087008
:101210003C48007B00F0FE003A490873A2200870A9
:101220000846C07800F01F00C870072008710C2025
:10123000487100BF3348807900F002000028F9D0DF
:1012400000BF3048807900F010000028F9D100BFBD
:101250002C48807900F00C000828F9D14C2029494D
:10126000487100BF2748807900F00C000828F9D1A8
:1012700000BF2448807900F040000028F9D02220E7
:101280002049087000BF1F48807900F00C000C282E
:10129000F9D11A48006920F0807040F4E0601749E5
:1012A00008611A48407900F0E00018494871084682
:1012B000007900F0F80008710E48007800F0DC00BA
:1012C00040F050000B4908700846407800F0DC0000
:1012D00040F0400048700846807800F0E6008870D2
:1012E00000200B49087070470020054000003301C2
:1012F0000080044000D0074000700440009004408B
:10130000FFF8FFFE004006400050064000F0074096
:1013100000E0074010B51348806B40F4806011492D
:1013200088630846406B40F48060486340F21330A5
:101330000D4908644FF4517048640C48C07800F0BF
:10134000F3000A49C8700020087027204870022066
:101350008872042088702C20C8702D2000F080F83E
:1013600010BD00000080044000A0044000A0064022
:10137000024909790149C879C871704700A006403F
:1013800000BF0449097901F080010029F9D0014921
:10139000C871704700A0064010B51348806B40F438
:1013A0000050114988630846406B40F40060486370
:1013B00040F213300D4948604FF4517008600C48FA
:1013C000C07800F0F3000A49C87001200870D420EA
:1013D000487002208872042088702C20C8702F204A
:1013E00000F03EF810BD00000080044000D0044032
:1013F00000B0064008B51648007900F0200030B370
:10140000134800791248C07900901148C0790090C3
:101410009DF800000A280ED00D48C0790D490E4AEB
:10142000127888540C480078401C0B490870002042
:101430000A4908700BE000200649074A12788854D0
:1014400005490870FFF7E0FC01200449087008BD59
:1014500000B006402404002000000020010000200D
:10146000002809DB00F01F0201219140420992008F
:1014700002F1E022C2F8001170470000FFF7D6FD2C
:10148000FFF796FCFFF79AFA4FF47A70FFF754FDD6
:10149000FFF740FFFFF780FFFFF7C2FCF948006845
:1014A0004FF47A72B0FBF2F1481EB0F1807F00D3A6
:1014B0001BE0481E4FF0E022506150170F22002819
:1014C00004DB13071C0EF04B1C5406E013071D0E23
:1014D000EE4B00F00F04241F1D5500BF00204FF0FD
:1014E000E02290610720106100BFE948FFF764FD2A
:1014F0003222E8490020FFF781F83222E649002035
:10150000FFF77CF83222E5490020FFF777F8322216
:10151000E3490020FFF772F83222E2490020FFF78A
:101520006DF800F001FAE5E1DF480078002875D099
:10153000DEA1DF48FFF710F9DE490860DBA10020DB
:10154000FFF70AF9DB494860D8A10020FFF704F94A
:10155000D84988600868D8A1FFF7FEF8D749086025
:10156000D5A10020FFF7F8F8D44948600A2248685E
:101570000021FFF7B8F8D24908700846007805281E
:1015800063D2DFE800F003090C424C000020CD4993
:101590000870FFF72DFC58E0FFF736FC55E0FFF729
:1015A00027FCC4494868C4A1FFF7D6F8C6490860BB
:1015B000C1A10020FFF7D0F8C34948604868C3A123
:1015C000FFF7CAF8C0494860BA498868BAA1FFF76E
:1015D000C3F8BF490860B8A10020FFF7BDF8BC49B7
:1015E00048600A2248680021FFF77DF8B949087071
:1015F0002320FFF7C5FE2A20FFF7C2FEB549097870
:101600003031C8B2FFF7BCFE1FE0FFF7FDFB012041
:10161000AC4908700020B049087016E019E0A549EF
:101620004868A5A1FFF798F8AC490860A2A100207E
:10163000FFF792F8A9494860A5490A2248680021A5
:10164000FFF719F84042A649087000BF00209649EC
:1016500008709C480078002871D09E480078801E51
:101660000D286DD2DFE800F007526D868A8EA66CD9
:10167000AAC3DCE0E4009848007830B1012812D019
:1016800002281ED003283FD12DE00F20FFF744FB96
:1016900000F032F94FF47A7000F034F910B1012003
:1016A0008D49087030E000F027F90220FFF734FB85
:1016B0004FF47A7000F026F910B1022086490870C4
:1016C00022E08748007868B10B20FFF725FB4FF434
:1016D0007A7000F017F928B103207F4908700020C4
:1016E0007F49087010E07E48007868B10220FFF75B
:1016F00013FB4FF47A7000F005F928B10220764907
:10170000087000207649087000BFEFE0724800784A
:1017100010B1012811D10DE00320FFF7FDFA00F010
:10172000EBF84FF47A7000F0EDF810B101206A493F
:10173000087002E00B20FFF7EFFA00BFD6E0D6E01A
:10174000D0E06548007810B1012811D10DE00420E7
:10175000FFF7E2FA00F0D0F84FF47A7000F0D2F818
:1017600010B101205C49087002E00B20FFF7D4FAA9
:1017700000BFBBE00520FFF7CFFAB7E00620FFF778
:10178000CBFAB3E05448007810B1012810D10CE036
:101790000620FFF7C1FA00F0AFF8FA2000F0B2F827
:1017A00010B101204C49087002E00720FFF7B4FA9D
:1017B00000BF9BE00820FFF7AFFA97E046480078AB
:1017C00010B1012811D10DE01020FFF7A5FA00F0AB
:1017D00093F84FF47A7000F095F810B101203E496B
:1017E000087002E00A20FFF797FA00BF7EE03A484F
:1017F000007810B1012811D10DE00F20FFF78CFA0D
:1018000000F07AF84FF47A7000F07CF810B1012003
:101810003149087002E00B20FFF77EFA00BF65E057
:101820000C20FFF779FA61E00D20FFF775FA5DE013
:101830002948007820B1012810D002281FD11BE0D0
:101840000F20FFF769FA00F057F84FF47A7000F0B4
:1018500059F810B101202049087010E01120FFF75D
:101860005BFA00F049F84FF47A7000F04BF810B1D1
:1018700002201949087002E00E20FFF74DFA00BF60
:1018800034E000001C04002000E400E018ED00E05B
:101890000C00002034030020C00200204C02002075
:1018A000D801002064010020010000202C0000006D
:1018B00024040020B80300203A000000C8030020E0
:1018C00002000020DE000020D003002022000000E3
:1018D000D8030020B403002098030020E003002078
:1018E000B50300200020FFF717FA00BF02E0002038
:1018F000FFF712FA18E6000001200149087070474E
:10190000E8030020014606480088884206DD0020E2
:10191000044A1070024A1080012070470020FCE742
:10192000EA030020E80300200CB5002001900CE041
:101930000020009002E00098401C00900098B0F554
:10194000FA6FF8DB0198401C019041F28831019850
:101950008842EDDB0CBD000010B500290AD00878E4
:10196000002807D005487844FEF7E0FF002801D0A2
:10197000002010BD0248784410BD0000F6000000B1
:10198000EE00000000000000000000000000000069
:101990000202020002020000000002020202020231
:1019A0000000020202000202020202020000020221
:1019B000020202000000000002000000000000001F
:1019C00000000002020202020202020202020202FD
:1019D00002020000000202020000020202020000F5
:1019E00000000002000000020002000002020002EB
:1019F000050E08090D0C06070F04001303931A9235
:101A000017C585848687C40010000000040000000C
:101A100008000000080000001000000004000000A2
:101A20008000000000200000001000000100000005
:101A30000200000040000000200000006C1B0000BD
:101A400000000020240400004C040000B81B00002B
:101A5000240400201C160000A8040000100100004F
:101A600043000000F8FFFFFF00404040404040407E
:101A70004040414141414140404040404040404061
:101A80004040404040404040400502020202020205
:101A90000202020202020202022020202020202054
:101AA0002020200202020202020290909090909068
:101AB0001010101010101010101010101010101026
:101AC000101010100202020202028888888888889A
:101AD0000808080808080808080808080808080886
:101AE000080808080202020240000000000000008E
:101AF00000000000000000000000000000000000E6
:101B000000000000000000000000000000000000D5
:101B100000000000000000000000000000000000C5
:101B200000000000000000000000000000000000B5
:101B300000000000000000000000000000000000A5
:101B40000000000000000000000000000000000095
:101B50000000000000000000000000000000000085
:101B600000000000000000000000000061470B05BD
:101B700006070A0E0366F401096668AB0106700ADF
:101B8000645074620552C80A6464740A7104740A69
:101B90007103740A7102740A70017401200B2C38ED
:101BA0001A04416D80F00F4004DAC0041159042971
:081BB0000C69201144A24A0453
:04000005000004FDF6
:00000001FF
